:40000000021505008F828E83E0540100000070F82278FFE4F6D8FD021563EC4D6011E8497017ED33EC3304600DE4FCFFFEFD22E933E8330470F802019312015E58046009A6
:40004000E4CC2481500628500902019D28400302019AC0E0EB4A7044B98006D0E0FB020189EF4E701CBD8008EBFFEAFEE9FD80EBE98DF0A4FEE5F0020103E9CDF9EAFEEB17
:40008000FFEF89F0A4FCE5F0CE89F0A42EFFE435F0CD89F0A42DFEE435F08067EF4E7005BD80D780C3EF8BF0A4ACF0EE8BF0A42CFCE435F0F8EF8AF0A42CE5F038FCE433FC
:4000C000CB8DF0A42CFCE5F03BF8EE8AF0A42CFCE5F038F8E433CF89F0A42CFCE5F038CF3400CE89F0A42FFFE5F03EFEE433C98DF0A42EFEE5F039CD8AF0A42FFFE5F03EDF
:40010000FEE43DFD33D0E0FB50070BBB000F02019DEC2CFCEF33FFEE33FEED33FD02017575F020800E75F010800575F0087D007E007F003392D530D5031206D0EC33401023
:40014000EF33FFEE33FEED33FDEC33FCD5F0ED22E5F0247EA2D513CC92E7CDCEFF22E9D2E7C933E833F892D5EDD2E7CD33EC33FC5002B2D522EC30E7100FBF000C0EBE00A4
:40018000080DBD00040BEB6014A2D5EB13FCED92E7FD2274FFFCFDFEFF22E480F8A2D574FF13FC7D80E480EFF920E73624F950037907E4F42402FBE582158270021583DBD7
:4001C000F6E024FB501BE96014E4F0E582158270021583E004F0B40A08E4F0D9EE7401F00A22C2D522ED33EC3392D5FA602AB4FF33EDC2E77BFF60067A02790AE4227A02E0
:40020000791320D5047A02790E224E614E002B494E46002D494E4600E47A08F0A3DAFC7B00740722C083C082ECC0E0EDC0E0EEC0E0EFC0E0EA75F010A4CAABF075F04DA4A5
:400240002BFBE435F0FCEA2410FAEB34C5FBEC34D9FCEDC2E7FF75F056A4F42411C5F0F434C58FF0A42AE5F03BE43CF020E7141204B2D0E0FFD0E0FED0E0FDD0E0FC12038D
:40028000E58014F4041204B2D0E0FFD0E0FED0E0FDD0E0FC12001AD082D083E0FAEDD2E7CD33EC332482FBE4C3CF33CFCE33CECD33CD33DBF37B0775F00A846004F0A31BA2
:4002C0000AE5F0F0A38FF0740AA4FFACF08EF0740AA42CFEACF050010C8DF0740AA42CFDE435F0F0A3DBDE740722020193E86480F8E933E83360110460F0ED33EC337009C5
:40030000E8FCE9FDEAFEEBFF220460DED3EB9FEA9EE99DE8C2E78CF0C2F795F0400CE8CCF8E9CDF9EACEFAEBCFFB12015E85D0F05804700320D5B3E80470075002B2D5028E
:40034000019D92D5EC0460F7E4CCC0E0C398F8603B94186008400DD0E0FB020175E4FBFAC9FC8028E830E406E4C9FBE4CAFCE830E305E4C9CACBFCE854076010F8C3E9132D
:40038000F9EA13FAEB13FBEC13FCD8F130F52FC3E49CFCEF9BFFEE9AFEED99FDD0E0FBEF4E4D4C701222DB0302019AEC2CFCEF33FFEE33FEED33FDED30E7EB020175EF2BD9
:4003C000FFEE3AFEED39FDD0E0FB50130BBB000302019DED13FDEE13FEEF13FFEC13FC02017502019DEC5D046005E85904700302019312015E580460F6EC4860F2EC700425
:40040000FDFEFF22C860DB2481C85009C3986002500602019A9850CAF582E9294B4A7005AB8202018975F0007C1A7880C3EF9BEE9AED99400DC3EF9BFFEE9AFEED99FDE851
:4004400042F0DC23ACF0D0E0FFD0E0FED0E0FDAB8220E7101BEB60BAEC2CFCEF33FFEE33FEED33FD020175E803F830E705C0F075F000EF2FFFEE33FEED33FD40B830E7C21A
:4004800080AA3F8000004120000042C80000447A0000461C400047C35000497424004B1896804CBEBC205A0E1BCA6753C21C749DC5AEFB60065407601C23231204E0EB54D2
:4004C0003860091204CC1204DB12001AECF8EDF9EEFAEFCB22EB1204DB80F1543803241C900482FE93FC0EEE93FD0EEE930ECE93FF22BB010689828A83E0225002E722BB72
:40050000FE02E32289828A83E49322BB010CE58229F582E5833AF583E0225006E92582F8E622BBFE06E92582F8E222E58229F582E5833AF583E49322BB010689828A83F065
:40054000225002F722BBFE01F322C5F0F8A3E028F0C5F0F8E582158270021583E038F022BB010A89828A83F0E5F0A3F0225006F709A7F01922BBFE06F3E5F009F31922EFCB
:400580002BFFEE3AFEED39FDEC38FC22E88FF0A4CC8BF0A42CFCE98EF0A42CFC8AF0EDA42CFCEA8EF0A4CDA8F08BF0A42DCC3825F0FDE98FF0A42CCD35F0FCEB8EF0A4FEFE
:4005C000A9F0EB8FF0A4CFC5F02ECD39FEE43CFCEAA42DCE35F0FDE43CFC2275F008758200EF2FFFEE33FECD33CDCC33CCC58233C5829BED9AEC99E58298400CF582EE9BAE
:40060000FEED9AFDEC99FC0FD5F0D6E4CEFBE4CDFAE4CCF9A88222B800C1B90059BA002DEC8BF084CFCECDFCE5F0CBF97818EF2FFFEE33FEED33FDEC33FCEB33FB10D7035D
:40064000994004EB99FB0FD8E5E4F9FA227818EF2FFFEE33FEED33FDEC33FCC933C910D7059BE99A4007EC9BFCE99AF90FD8E0E4C9FAE4CCFB2275F010EF2FFFEE33FEED67
:4006800033FDCC33CCC833C810D7079BEC9AE899400AED9BFDEC9AFCE899F80FD5F0DAE4CDFBE4CCFAE4C8F922EF5BFFEE5AFEED59FDEC58FC22EF4BFFEE4AFEED49FDEC95
:4006C00048FC22CFF4CFCEF4CECDF4CDCCF4CC22C3E49FFFE49EFEE49DFDE49CFC22EB9FF5F0EA9E42F0E99D42F0E89C45F022E8600FECC313FCED13FDEE13FEEF13FFD8AF
:40070000F122E8600FEFC333FFEE33FEED33FDEC33FCD8F122E0FCA3E0FDA3E0FEA3E0FF22E0F8A3E0F9A3E0FAA3E0FB22ECF0A3EDF0A3EEF0A3EFF022A42582F582E5F01F
:400740003583F58322E0FBA3E0FAA3E0F922F8E0FBA3A3E0F925F0F0E582158270021583E0FA38F022EBF0A3EAF0A3E9F022E493FB740193FA740293F922D083D082F8E4FF
:40078000937012740193700DA3A393F8740193F5828883E4737402936860EFA3A3A380DFE5162582F582E5153583F583B515048582162210AF06858216F51522858216F575
:4007C00015D2AF22EC8EF0A4CCC5F0CCCDF8EFA4CEC5F02DFDE43CFCE8A42EC8C5F03DFDE43CFCEFA4FFE5F028FEE43DFDE43CFC22E709F608DFFA8046E709F208DFFA807F
:400800003E88828C83E709F0A3DFFA8032E309F608DFFA806EE309F208DFFA806688828C83E309F0A3DFFA805A89828A83E0A3F608DFFA804E89828A83E0A3F208DFFA8084
:400840004280D280FA80C680D4805580F28029801080A680EA809A80A880DA80E280CA802988848C8589828A83E493A30586F0A30586DFF5DEF3800B89828A83E493A3F67F
:4008800008DFF9ECFAA9F0EDFB2288848C8589828A83E0A30586F0A30586DFF6DEF480E389828A83E493A3F208DFF980D688F0EF60010E4E60CD88F0ED2402B4040050C363
:4008C000F582EB2402B4040050B9232345822390084173E5082469F582E43402F583E0050822900266300703900269E475F00112074E0204F22000E97F2ED2008018EF5468
:400900000F2490D43440D4FF30040BEF24BFB41A0050032461FFE50960021509050CE50C7002050B30070E900266E475F00112074EEF02053802255E7403D2078003E4C217
:4009400007F508900266120765E4F509F50BF50CE50960077F2012091680F5750AFFC201C200C202C203C205C206C2081208E2FF700D3007057F00120927AF0CAE0B22B4DC
:40098000255FC2D5C2041208E2FF24D0B40A00501A75F00A780930D50508B6FF0106C6A426F620D5047002D20380D924CFB41A00EF5004C2E5D204020C19D20180C6D200CF
:4009C00080C0D20280BCD2D580BAD20580B47F201209162002077401B5090040F11208D3FF120916020950D208D20680951208D3FB1208D3FA1208D3F94A4B700679177A55
:400A00000D7BFF20022EE509602A7E008E8275830012050B60060EEE650A70F0C2D5EBC0E0EAC0E0E9C0E0EE120C7AD0E0F9D0E0FAD0E0FB1204F2FF60AAEBC0E0EAC0E0AF
:400A4000E9C0E0120916D0E02401F9D0E03400FAD0E0FBE50A0460DCD50AD98087D20280A2120C5C60F7E50A7001041201A8A90A600DE50A600914F50A120D04EF60F3EAB7
:400A800030E702F404C3995079EAF4250A0430E701E404F50A800D120C5C60C1EA050A250A1201A8EA900295F030E701E4250A04D50A0420050114120C7AE4C0E0120D0459
:400AC000900295E0601320E70714F01208FE802204F0D0E014C0E07F001208FEE50A60071208F5150A800B3005031208F5D0E0020950D0E00480C4120C5C609EE50A0412EB
:400B000001A8900295EAF0E50A2005026001042404120C7A74FF04C0E0120D041208FEE50A20050260031208F5D0E0B50AE87F45120908900295E07F2B30E7047F2DF40448
:400B4000C0E0120916D0E075F00A84C0F01208FFD0E01208FF020950791080027908C206C2088008D2D5790A8004790AC2D5E50A047002F50AE4FAFDFEFF1208D3FC7B08FE
:400B80002001131208D3FD7B1030000A1208D3FE1208D3FF7B20EC3382D592D55013C3E43000069FFFE49EFEE42001039DFDE49CFCE4CBF8C201EC700CCFCECDCCE824F87B
:400BC000F870F38017C3EF33FFEE33FEED33FDEC33FCEB33FB994002FB0FD8E9EB300105F8D0E0C448B201C0E00AEC4D4E4F78207B0070C2EAB50A0040BCC0E0120C7CD00D
:400C0000F0D0E0200104C4C0E0C4B201C0F01208FFD0F0D5F0EB02095012077A09ED530B585809BE4C09BA420B5C4F0B64440B644909D3430B6A550A97460AF7450A6147E8
:400C40000D375009C22D09C62E09E92B09CA2309E7200D202A098248000009E1E50AB4FF03750A061208D3FC1208D3FD1208D3FE1208D3FF90028E0201E5790AA2D52003BB
:400C800014300509B910020404B9080104A2D52006025001042002689202B509005034C0E07F203003197F30A20272067205500F120CD3C202C206C205C2087F30800F304D
:400CC0000503E9C0E0120916300503D0E0F9D0E0B509CC3005177F30B9100C1209167F583004077F788003B908031209163002057F2D0209167F202008F87F2B2006F322ED
:400D0000920280CF7F00B40700500B248EF582E43402F583E0FF22286E756C6C2900D2011208D33001F8C201780930D50108F60209822D504349581208D32403B405004047
:400D400001E4900D3293120907743A120907D203750904020B58900206E4F0A3E4F07BFF7A1F7918C003C002C0017B017A027908A801AC02AD03D001D002D0037E007F2896
:400D80001208AD900258E4F0900259E4F090025AE4F090025DE4F090025E7403F0A374E8F0900260740BF0A374B8F0900262E4F0900263E4F0900264E4F0900265E4F0D20E
:400DC000AF9044F474FDF012263B12266512267A1228261228181226A47F001227007F00122710122839EF20E103020F1C900259E0FFEF64016003020F1C90025DE0FFEF4D
:400E00007003020ED090025EE0FEA3E0FFEF2458FFEE3402FE90025BE0FCA3E0FDC3ED9FEE6480F8EC64809850417B017A027930C003C002C0017BFF7A1E79D690026912D3
:400E4000076590025BE0FCA3E0FDEC1201257B687AE8799F783A12001A90026C12072DD001D002D003120938020F0E900260E0FEA3E0FFEF24A8FFEE34FDFE90025BE0FC40
:400E8000A3E0FDD3ED9FEE6480F8EC648098407E7B017A027930C003C002C0017BFF7A1E79EE90026912076590025BE0FCA3E0FDEC1201257B687AE8799F783A12001A9052
:400EC000026C12072DD001D002D003120938803E7B017A027930C003C002C0017BFF7A1F790690026912076590025BE0FCA3E0FDEC1201257B687AE8799F783A12001A908D
:400F0000026C12072DD001D002D0031209387B017A027930122184900259E4F0900262E0FFEFB4020C7F001227007FC8122710801F900262E0FFEFB4010C7FC81227007F30
:400F400000122710800A7F001227007F00122710121DFC90025AEFF090025AE0FFEF7003020DE3900258E4F090025AE0FF900258E0FEEEC39F400302117912268FEF54FF90
:400F8000FF900258E0FE74082EF582E43402F583EFF0900258E0FF74082FF582E43402F583E0FFEF64766015900258E0FF74082FF582E43402F583E0FFEFB4560890025DF2
:400FC000E4F0021170900258E0FF74082FF582E43402F583E0FFEF64736015900258E0FF74082FF582E43402F583E0FFEFB4530990025D7401F0021170900258E0FF74088C
:401000002FF582E43402F583E0FFEF64626015900258E0FF74082FF582E43402F583E0FFEFB4421390025BE0FEA3E0FF90025EEEF0A3EFF0021170900258E0FF74082FF592
:4010400082E43402F583E0FFEF64776015900258E0FF74082FF582E43402F583E0FFEFB4571390025BE0FEA3E0FF900260EEF0A3EFF0021170900258E0FF74082FF582E4E4
:401080003402F583E0FFEF646C6016900258E0FF74082FF582E43402F583E0FFEF644C703C900262E0FFEF70099002627402F0021170900262E0FFEF640160030211707F23
:4010C000001227007F001227107FFA7E007D007C00121F409002627402F0021170900258E0FF74082FF582E43402F583E0FFEF64726016900258E0FF74082FF582E4340215
:40110000F583E0FFEF64527037900262E0FFEF70089002627401F08057900262E0FFEF6402704D7F001227007F001227107FFA7E007D007C00121F409002627401F08030D3
:40114000900258E0FF74082FF582E43402F583E0FFEF64666015900258E0FF74082FF582E43402F583E0FFEFB44605900262E4F0900258E004F0020F68900258E0FF740857
:401180002FF582E43402F583E4F01223419002597401F0020DE3227B007A4679E8122800EF4405FD7B007A4679E812280C751400E514C3940B503AAF14EF75F005A4240703
:4011C000F582E43429F583AF82AE838E088F09AE08AF098F828E8312076EAE08AF098F828E83740393FC740493FD1225C5051480BF751400E514C394015078AF14EF75F06D
:4012000008A4243EF582E43429F583AF82AE838E0A8F0BAE0AAF0B8F828E8312076E8B0C8A0D890EAE0AAF0B8F828E83A3A3A312076E8B0F8A108911AE0AAF0B8F828E8396
:40124000740693F512740793F513AB0FAA10A911C003C002C001AB0CAA0DA90E90020B120765D001D002D003AF13AE12122473051480817B087A0079001225057B007A76B8
:4012800079007D047C001225C57B007A7679087D047C001225C57B017A507903122800EF4402FD7B017A50790312280C7B017A507913122800EF4402FD7B017A507913127F
:4012C000280C9043A0E0FFEF4440FF9043A0EFF09043C2E0FFEF4410FF9043C2EFF07B087A0579C0C003C002C0017B007A51792090020B120765D001D002D0037F0A7E0082
:401300001224737B087A0579CCC003C002C0017B007A51794290020B120765D001D002D0037F087E001224737B087A0579D4C003C002C0017B007A51796290020B12076566
:40134000D001D002D0037F087E001224739044F47401F0904322E0FFEF4408FF904322EFF09046ECE0FFEFC394055006904689743AF090480074F1F01213B590480074B1F7
:40138000F01222BE7B007A4379A0C003C002C0017B007A4379B090020B120765D001D002D0037F0E7E001224739043B0E0FFEF54FDFFEFF0227B007A4079807D177C00121C
:4013C00027BF9040827418F07B007A4079847D177C001227BF9040867418F07B007A4079887D197C001227BF90408A7418F07B007A40798C7D1D7C001227BF90408E7419E4
:40140000F07B007A4079907D2F7C751227BF9040927419F09043007402F09040007408F09042007403F07B0C7A0179081228009046A1EFF07B007A4279227D087C0012273D
:40144000BF7B007A4279207D517C121227BF90020AE4F07F197E007D007C0090020612072D900206120715D3EF9400EE9400404E90020AE0FFEF64036044904225E0FFEFC6
:401480005401FF7E0090020AE0FEEE25E0FEEE4FFFEF5403FF90020AEFF07FE07E017D007C001224009002061207157BFF7AFF79FF78FF12057F90020612072D80A3900215
:4014C00006120715EF4E70057F031226CE7B007A4079047D007C011227BF9040047407F0904006E4F09040087448F0904004E4F09040017402F09043A2E0FFEF441FFF9059
:4015000043A2EFF02275930078007583467582E8E04401F0009046ECE0F99046FAE0FAB903225420B40012B8001AEA900FFFF07401900FFEF09046F6F0900FFEE06005903C
:401540000FFFE0FA90480074C0F075812190000078007910E4F0A3D8FCD9FAEA9002E6F002001175150F7516FD1211971221DD0215AD020D56E493A3F8E493A34003F68063
:4015800001F208DFF48029E493A3F85407240CC8C333C4540F4420C8834004F456800146F6DFE4800B0102040810204080901D8BE47E019360BCA3FF543F30E509541FFEDD
:4015C000E493A360010ECF54C025E060A840B8E493A3FAE493A3F8E493A3C8C582C8CAC583CAF0A3C8C582C8CAC583CADFE9DEE780BEC0E0C083C082C085C084C086758687
:4016000000C093759300C0D075D000C006C007900297E4F0A2AFE433FF900298EFF0D2AF9044F474FDF090646FE0FF900296EFF0900296E0FFEF30E56890644FE0FF900068
:4016400001E0FE74072EF582E43400F583EFF09002977401F0900297E0FFEF6038900005E0FFEF60069000047401F0900001E004F0900001E0FFEFC394FF4005900001E449
:40168000F0900006E0FF900001E0FEEEB507069000057401F090646FE0FF900296EFF0808F900298E0FFEF24FF92AFD007D006D0D0D093D086D084D085D082D083D0E032C2
:4016C00090026BEFF0900002E0FF90026CEFF0900106E0FF90026DEFF090026DE0FF90026CE0FEEEC39F502690026DE0FF7E00EF24FFFFEE34FFFE90026CE0FD7C00EFB565
:401700000508EEB504047F0180027F00801890026DE0FF90026CE0FEC3EE9FFFEFB4FE047F0180027F00EF709C90026CE0FF90026DE0FEEEB50714906460E0FFEF20E20B07
:4017400090026BE0FF906440EFF02290026CE0FFEFC394FF400590026CE4F090026BE0FF90026CE0FE74072EF582E43401F583EFF090026CE004F090026CE0FF900002EFA7
:40178000F022900273EFF0900274EDF0900275EBF09002797401F0900273E0FFEFC394184003021835900275E0FFEF5401FF7E00EF75F080A4FFAEF0900274E0FEEE547FC9
:4017C000FEEE4FFF900273E0FE75F008EE907600120739EFF0900277E0FFEF540FFF7E00EF75F010A4FFAEF0900276E0FEEE540FFEEE4FFF900273E0FE75F008EE90760128
:40180000120739EFF0900278E0FFEF540FFF900273E0FE75F008EE907602120739EFF0900273E0FF75F008EF907603120739E4F0900279E4F0900279E0FF2290026612075B
:4018400065900269ECF0A3EDF0900266120745AF01AE02AD037C0078101206EFEF64FF4E70067E007F1080047E007F0090026BEEF0A3EFF090026BE0FAA3E0FB900271E4FE
:40188000F0A3E4F07D017F011220079002F1EFF09002F3E0FF900269E0FCA3E0FD9002F3E0FB9002717401F012199B9002F3E0FFC007900266120745AF01AE02AD037C00D2
:4018C000EF54FFFFEE54FFFEED5400FDEC5400FCAD07AC06D0077B807A5B121ADD9002F1E0FF9002F3E0FD1223C122900266120765900269ECF0A3EDF0900266120745AF2A
:4019000001AE02AD037C0078101206EFEF64FF4E70067E007F1080047E007F0090026BEEF0A3EFF090026BE0FAA3E0FB900271E4F0A3E4F07D017F01121FA69002F2EFF05F
:401940009002F4E0FF900269E0FCA3E0FD9002F4E0FB9002717401F012199B9002F4E0FFC007900266120745AF01AE02AD037C00EF54FFFFEE54FFFEED5400FDEC5400FC14
:40198000AD07AC06D0077B807A5B121ADD9002F2E0FF9002F4E0FD1223C12290026DEFF090026EECF0A3EDF0900270EBF09002727401F090026DE0FFEFC39480507A9002B3
:4019C0006EE0FEA3E0FFEE54F0FE7F00EF4E706890026DE0FF7E08EF8EF0A4FFAEF0EF2400FFEE3478FE900273EEF0A3EFF0900273E0FEA3E0FFAA06A9077B0190026EE013
:401A0000FCA3E0FD1227C1900270E0FF90026DE0FE75F008EE907802120739EFF0900271E0FF90026DE0FE75F008EE907803120739EFF0900272E4F0900272E0FF22900217
:401A400073EFF0900274ECF0A3EDF0900276EAF0A3EBF09002787401F0900273E0FFEFC394185073900273E0FF7E08EF8EF0A4FFAEF0EF2404FFEE3476FE900279EEF0A38E
:401A8000EFF0900279E0FEA3E0FFAA06A9077B01900274E0FCA3E0FD1227C1900273E0FF7E08EF8EF0A4FFAEF0EF2406FFEE3476FE900279EEF0A3EFF0900279E0FEA3E007
:401AC000FFAA06A9077B01900276E0FCA3E0FD1227C1900278E4F0900278E0FF2290026DEFF090026EECF0A3EDF0900270EAF0A3EBF09002727401F090026DE0FFEFC394A3
:401B000080507390026DE0FF7E08EF8EF0A4FFAEF0EF2404FFEE3478FE900273EEF0A3EFF0900273E0FEA3E0FFAA06A9077B0190026EE0FCA3E0FD1227C190026DE0FF7E4A
:401B400008EF8EF0A4FFAEF0EF2406FFEE3478FE900273EEF0A3EFF0900273E0FEA3E0FFAA06A9077B01900270E0FCA3E0FD1227C1900272E4F0900272E0FF22C0E0C08341
:401B8000C082C085C084C086758600C093759300C0D075D000C006C007A2AFE433FF900299EFF0D2AF9044F474FDF0900002E0FF900106E0FEEE6F6037906460E0FFEF2025
:401BC000E22E900106E0FFEFC394FF4005900106E4F0900106E0FF74072FF582E43401F583E0FF906440EFF0900106E004F080BB900299E0FFEF24FF92AFD007D006D0D000
:401C0000D093D086D084D085D082D083D0E03212281F900006E0FF900267EFF0900001E0FF900268EFF0900005E0FFEF700E900268E0FF900267E0FEEE6F6045900267E060
:401C4000FF74072FF582E43400F583E0FF900266EFF0900267E004F0900267E0FFEFC394FF4005900267E4F0900267E0FF900006EFF0900005E0FFEF6011900005E4F080F8
:401C80000A90644FE0FF900266EFF0122818900266E0FF22900266EFF0900267ECF0A3EDF0900266E0FFEFD3941F5003D38001C340057F00122650900266E0FFEF541FFF70
:401CC0007E00EF25E0FFEE33FEEF2400FFEE3444FEAA06A9077B011227B2900269EEF0A3EFF0900266E0FF7E02EF8EF0A4FFAEF0EF2400FFEE3444FEAA06A9077B019002D3
:401D000067E0FEA3E0FFAD07AC061227C1900269E0FEA3E0FF22900266EFF0900267EDF09002687401F0900266E0FFEFC394185054900267E0FFEF6019900266E0FF75F09E
:401D400010EF907010120739E0FFEF4420FFEFF08017900266E0FF75F010EF907010120739E0FFEF54DFFFEFF0900266E0FF75F010EF907010120739E0FFEF4401FFEFF051
:401D8000900268E4F0900268E0FF224202FB00004202FD00004102FF004402E2016E36004402DD00005DC04102E1184402E72EE00000410300004100030041010600410003
:401DC0000200410006004100010041000500410004004102F5004102F0804102EF7F4402EB00000003410301FF410302FF410303004302F6000000410304000012281F90C1
:401E00000001E0FF900006E0FEEEB5071A900005E0FFEFD39400400890026674FFF08042900266E4F0803B900001E0FF900006E0FEEEC39F5015900006E0FF900001E0FE57
:401E4000C3EE9FFF900266EFF08017900006E0FFC374FF9FFF900001E0FEEF2EFF900266EFF0122818900266E0FF22900273EFF0900274EDF09002767401F0900273E0FF97
:401E8000EFC39418504A900273E0FF75F010EF907010120739E0FFEF54F1FF900275EFF0900274E0FFEF5407FF7E00EF25E0FFEE33FE900275E0FEEF4EFF900273E0FE7551
:401EC000F010EE907010120739EFF0900276E4F0900276E0FF2270686F746F203D20426C61636B2025362E34665B565D0A0070686F746F203D2057686974652025362E346A
:401F0000665B565D0A0070686F746F203D2025362E34665B565D0A007965730A000000000000000000000000000000000000000000000000000000000000000000000000E6
:401F400090FFFC1207A012072D851583851682120715D3EF9400EE9480402F9002E7120715122400851583851682C083C082120715EF2400FFEE3480FEED34FFFDEC34FFF0
:401F8000FCD082D08312072D80BF9002DD12071585158385168212072112058C1224009000041207A02290026DEFF090026EEDF090026FEAF0A3EBF09003027401F0900301
:401FC00002E0FF90026DE0FD90026EE0FB900276E4F0900277E4F0900278E4F0121782900302E0FF90026FE0FCA3E0FD900271E0FAA3E0FB121A3E900302E0FF7D02121E4E
:402000006B900302E0FF2290026DEFF090026EEDF090026FEAF0A3EBF0900301E4F0900301E0FF90026DE0FD90026EE0FB900276E4F0900277E4F0900278E4F01217829027
:402040000301E0FF90026FE0FCA3E0FD900271E0FAA3E0FB121A3E900301E0FF7D02121E6B900301E0FF22906472E0FFEF54C0FF900266EFF0900266E0FFEF4409FF906415
:4020800072EFF0906493E0FFEF4401FFEFF07FFF1226E07FFF1226F07F001227007F001227107F001227201226B9900267EFF0906493E0FFEF4410FFEFF0900267E0FF1289
:4020C00025DE1227CE22900266EFF0900267EDF0900267E0FFEFD394075003D38001C340057F00122650900266E0FFEFD3941F5003D38001C340057F00122650900267E041
:40210000FFEF5407FF7E00EF75F020A4FFAEF0900266E0FEEE541FFE74802EF582E43444F583EFF022906475E0FFEF54C0FF900266EFF0900266E0FFEF4409FF906475EFF6
:40214000F0906495E0FFEF4401FFEFF07FFF1227407FFF1227507F001227607F001227707F001227801226B9900267EFF0906495E0FFEF4410FFEFF0900267E0FF1225DE40
:402180001227DB22900266120765900269E4F0A3E4F0900003E0FFEF6042900266120745900269E0FEA3E0FFE92FF9EA3EFA1204F2FFEF6027900266120745900269E0FE9A
:4021C000A3E0FFE92FF9EA3EFA1204F2FF1216C0900269E475F00112054A80BE229002EF747FF09002F07480F0900206747FF0900206E0FFEF6021900206E0FFEF14FF9000
:402200000206E0FE75F008EE907800120739EFF0900206E014F080D7900206E0FF75F008EF907800120739E4F02290026774FFF01226B9900266EFF09002F0E0FFEFD39453
:402240001840269002EFE0FF900267EFF09002F0E014F0900267E0FF75F008EF907800120739E0FF9002EFEFF0900266E0FF1225DE900267E0FF22905820E0FFEF540CFF5A
:402280007E00EF7802CEC313CE13D8F9FFEF2406FF900267EFF0900267E0FFE4FCFDFEEF2420FFEE3401FEED340CFDEC3400FCA907AA06AB05122800904608EFF0227B0CF6
:4022C0007A0179CF122800900206EFF0900206E0FFEF5407FF90586EEFF0900206E0FFEFC4540FFFEF540FFF90586FEFF090516C7440F0905A837401F09058767444F02277
:402300001226B9900266EFF090649CE0FFEF4420FFEFF090649FE0FFEF4410FFEFF09044C07401F0906490E0FFEF4410FFEFF09044C07402F01225F6900266E0FF1225DE12
:40234000221226B9900266EFF090649FE0FFEF4401FFEFF090649FE0FFEF54FEFFEFF0900266E0FF1225DE12281F900006E4F0900001E4F0900005E4F0900004E4F012283F
:4023800018227C157DF27F00121C947D077F001220C690648C7472F090648F7420F07C1B7D7C7F01121C947D077F011220C69064227407F09064327448F09064807402F04F
:4023C0002290026DEFF090026EEDF090026F7401F090026DE0FFEFC39418501B90026EE0FF90026DE0FE75F010EE907019120739EFF090026FE4F090026FE0FF22000000B3
:40240000EC4D4E700D78FCEF24E950032840FD2200007BF178DA0000EF28FF78FFEE38FEED38FDEC38FC50E7EF2BFFEE38FEED38FDEC38FC40F222050203041225A57F0228
:402440001225327F041224D612222A9002F3EFF012222A9002F4EFF07BFF7A28793F7D647C0012183B7BFF7A2879A37D647C001218EB22758600EF4E6027EF60010E759358
:402480000090020BE0F595A3E0F585A3E0F5848B938A838982E0A30586F0A31586DFF6DEF4E4F593F5952290646FE0FFEF547FFF900266EFF0900004E0FFEF601390026644
:4024C000E0FFEF4480FF900266EFF0900004E4F0900266E0FF22900266EFF0905820E0FFEF54F3FFEFF0905820C083C082E0FF900266E0FEEE540CFEEF4EFFD082D083EFE3
:40250000F012227722ACEAADA08B938A838982E0F96017A3E0F5EAA3E0F5A0A3E060F4FAA3E0F8A3E0F2DAF8D9E98DA08CEAE4F59322900266EFF0905820E0FFEF54FDFF78
:40254000EFF0905820C083C082E0FF900266E0FEEE5402FEEF4EFFD082D083EFF022EFB40A07740D122569740A309811A899B8130CC2983098FDA899C298B811F63099FD93
:40258000C299F599221226249002F1E0FF7D01121D169002F2E0FF7D01121D167F001227A012260D22905820E4F0905821E4F0905A87E0FFEF4408FFEFF07F001224D67F7E
:4025C0000212253222EC4D6011ED60010C8B938A838982E4F0A3DDFCDCFA75930022EF54016004D2AF8002C2AFEF5402FF9044F4E054FD4FF0229043A2E0FFEF4404FFEF91
:40260000F09043B2E0FFEF4404FFEFF0229043A2E0FFEF4408FFEFF09043B2E0FFEF4408FFEFF0229043A8E0FFEF4401FFEFF09043B8E0FFEF4401FFEFF0229002FFE0FF89
:40264000EF70091220679002FF7401F01227E82290FFFF1207A0EFF09046EA7401F09000011207A022900300E0FFEF70091221259003007401F01227F422900003E0FFEF8F
:4026800070091223829000037401F0122300221224A77E00EF7D00FC121C0F7E00EC4EFEED4FFF229002F5E0FFEF700912243B9002F57401F0122585229044F4E0F8440299
:4026C000F0E85402FF10AF012274014FFF2290020BEFF090020BE0FF90020BEFF080FE22900268EFF0900268E0FF906403EFF022900268EFF0900268E0FF906443EFF0223E
:40270000900268EFF0900268E0FF906423EFF022900268EFF0900268E0FF906433EFF022900268EFF0900268E0FF906483EFF022906463E0FF900268EFF0900268E0FF22C1
:40274000900268EFF0900268E0FF906405EFF022900268EFF0900268E0FF906445EFF022900268EFF0900268E0FF906425EFF022900268EFF0900268E0FF906435EFF02219
:40278000900268EFF0900268E0FF906485EFF022906465E0FF900268EFF0900268E0FF22900266EFF0900266E0FF905B80EFF0228B938A838982E0FFA3E0FE759300228B7C
:4027C000938A838982EDF0A3ECF075930022122730EF30E40512282D80F422122790EF30E40512283380F422906472E0FFEF4480FFEFF022906475E0FFEF4480FFEFF02273
:402800008B938A838982E0759300FF228B938A838982EDF0759300229044C07401F0229044C87401F0229044C07402F022906453E0FF22906455E0FF22906460E0FF22805B
:40284000878F979FA6AEB5BCC2C9CFD5DBE0E5E9EDF1F4F6F9FAFCFCFCFCFCFAF9F6F4F1EDE9E5E0DBD5CFC9C2BCB5AEA69F978F87807870686059514A433D36302A241FED
:402880001A16120E0B09060503030303030506090B0E12161A1F242A30363D434A51596068707880848A8F94989EA2A8ACB2B6BCC0C6CAD0D5DADEE4E8EEF2F8FCF8F2EE0E
:4028C000E8E4DEDAD4D0CAC6C0BCB6B2ADA8A29E98948F8A84807A76706B66615D58534E49443E39342F2A25211C17120D0803080D12171C21252A2F34393E44494E535818
:402900005D61666B70767A0051000020005130001000515000100051C000100051F000100100000E80010F00010001140008000140000A00014C0002000150000020010EAC
:40294000800805400080000000000000000000000000000000000000000000000000000000000000000000000000000000000000000000000000000000000000000000000A
:402980000000000000000000000000000000000000000000000000000000000000000000000000000000000000000000000000000000000000000000000000000000000017
:4029C00000000000000000000000000000000000000000000000000000000000000000000000000000000000000000000000000000000000000000000000000000000000D7
:402A00000000000000000000000000000000000000000000000000000000000000000000000000000000000000000000000000000000000000000000000000000000000096
:402A40000000000000000000000000000000000000000000000000000000000000000000000000000000000000000000000000000000000000000000000000000000000056
:0200000480007A
:400000001E00520410022018212C3410005A018701006405800F832F852F8C728F38010045000204010503070C09030A010B0411101601170E19031B042509260128013097
:400040000133103402350F3B203E113F044026410345EC470B481349FF4AFF4BFF4EF04F44500C54015604580459045A045B045C205D225F0166C06A406B028210841485D9
:400080000688098A1092039705981C9A029B03A410A60CA80CAA11AB07AD02B01FB21FB307BB08D804D904DC22DF0101013200040101030C04080680070409040E8810303D
:4000C0001320172819201A401E90200422042308241027202A082E802F0A302031013304372838143D083E084014482049215004581059015A48620282028A01C07EC254B0
:40010000C466CA32CC67CE46D006D204D60FD801E684010255010802010504060107010910150116041702180219011B06240628062B072D0432063307350836013710382B
:40014000083B083E043F40400345104750482249FF4A074BFF4C404D204EF04F0550085280580459045A045B045C205D025F01604061A86240632082019B02A201A301A5B7
:4001800002A602B202B301B601B702C030C102C5D1C625C80FC9FFCAFFCBFFCDA0CF04D018D427D804D904DA04DB04DF01E040E2C0E440E540E6C0E8C0EAC0ECC0EEC00180
:4001C0000338000205060C080E2810A0172819081A021D081E0120102240254426142704290A2C082F02302037283D093E10401841204508482049054D015080512057021E
:40020000580859015AA0600474017502870189409210950196019B289F04A504A604A702C038C260C46CCA33CC64CEE0D046D60FD80401043F00020A0111011F032E013058
:400240000131023402350139803E10580459045C015F0182088A049E019F01A104A404A802AB02AF05B002B104B204B408B502B601B701B908BE01C020C106C5D0C620C74A
:4002800015C83AC9FFCAFFCBFFCDA0CF04D018D280D427D804D904DA04DB04DC11DD11DF01E040E2C0E440E540E6C0E8C0EAC0ECC0EEC001053200010308060407400F0223
:4002C00010021714180419011C401D201E101F4020012102221027952F4A30803102374045204D014F205604571B5D055E105F8065107402774079047B108040811194042F
:4003000096209F01A080AE01C05AC280C461CAB0CC19D020D220D6F0D820010B02B108B380010C3E00100102040C05040804090C0C030D010E0C100D11031202130C150CCA
:4003400016021703180D19031A021C081F03200F21082410250F28102D0F300E32103601370F3A023B803E4056025713580459045B045C225D205F018002810482018301BF
:4003800085079507980199019A029B06A403A803AD02AF01B507B603D804D904DC22DF01010D3D00010402072909100C800D280E48100811041502171418011D081E412109
:4003C00010222027012A802C802E402F103008322036243781380139043C013EA85E016C096D046F14748075807628772889018B1091029401952096409A809D809F29A1E5
:4004000030A508B120B240B440B510B680C0F8C2F2C476CAD8CCF6CEF3D680E420010E043B0259045C205F01010F2F0485080209020D080E020F48156017011D821F242196
:4004400001220223402404252026452C802D802E202F20364237283C043D623E404589462047014C804D204F485C026602670A82028E048F01C0B0C2F0C4D0CAF0CCF0CECF
:40048000F0D0D0D230D680D8B0011501E404011B01E4040140103002338037203F8059805F82620883A08A08CC70CE20D480D6A0D840E280E620014108878088028B409DEC
:4004C000809F82A402A740E240014207818097809D80A740AF02E220EE400143029780A74001440409083210C208CC0801450756108A109620B508D402E404EE080146012B
:40050000962001470196200148029780A7400149071B601F4083209780A740C6C0E420014C019620014D0282109620015004000708050A030E04015102003F10020000009E
:4005400002A71018003C038200040000011C30A103BF00000008030000180400000004400300004000000004030008230010030003800440201F1838000200200000440482
:400580004305060001CE000003FFFFFF62A0F0410C0000001800040004040404222200010000000000004002001030100010101200000000000000000000000000000000AA
:4005C000020000020200020000000000003C3C003C00000010404000000040010000000000000000000000000000000000000000000000000000000000000000000000006E
:4006000000000000000000000000000000000000000000000000000000000000000000000000000000000000000000000000000000000000000000000000000000000000BA
:40064000000000000000000000000000000000000000000000000000000000000000000000000000000000000000000000000000000000000000000000000000000000007A
:40068000000000000000000000000000000000000000000000000000000000000000000000000000000000000000000000000000000000000000000000000000000000003A
:4006C00000000000000000000000000000000000000000000000000000000000000000000000000000000000000000000000000000000000000000000000000000000000FA
:0200000490006A
:0400000000004005B7
:0200000490105A
:04000000BC90ACAF55
:0200000490303A
:02000000F74FB8
:0200000490501A
:0C00000000011E09E06903011E1FD7B8B3
:0200000490402A
:4000000000000000000000000000000000000000000000000000000000000000000000000000000000000000000000000000000000000000000000000000000000000000C0
:00000001FF
